:030000000215EAFC
:0C15EA00787FE4F6D8FD758156021631BA
:1011970025302E3266002000202020204445534C65
:1011A700494741444F00202020204C494741444FA4
:1011B70020202000204465736174697661646F00A4
:1011C700204174697661646F0042656D2056696ECF
:1011D700646F0054656D703A202020202052656CA2
:1011E700653A00000000003F170A3D3F970A3D3F60
:1011F700E147AE40166666403C28F64061EB854005
:1012070083D70A4096B85240A947AE40BC28F6405B
:10121700CF0A3D40E1EB8540F4CCCD4103D70A41ED
:101227000D1EB841168F5C41200000412970A44172
:1012370032E148413C28F64145999A414F0A3D41E0
:10124700587AE14161EB85416B5C294174A3D74131
:101257007E147B4183C28F41887AE1418D333341CC
:1012670091EB8541968F5C419B47AE41A0000041C1
:10127700A4B85241A970A441AE147B41B2CCCD4170
:10128700B7851F41BC3D7141C0F5C341C5AE14418F
:10129700CA51EC41CF0A3D41D3C28F41D87AE141CF
:1012A700DD333341E1EB8541E68F5C41EB47AE41EE
:1012B700F0000041F4B85241F970A441FE147B429A
:1012C7000166664203C28F42061EB842087AE142AF
:1012D7000AD70A420D28F6420F851F4211E14842FC
:1012E700143D714216999A4218F5C3421B47AE4204
:1012F7001DA3D74220000042225C294224B8524253
:10130700270A3D42296666422BC28F422E1EB842EB
:10131700307AE14232D70A423528F64237851F42F2
:1013270039E148423C3D71423E999A4240F5C342F9
:101337004347AE4245A3D742480000424A5C294290
:101347004CB852424F0A3D425166664253C28F42E1
:10135700561EB842587AE1425AD70A425D28F642E9
:101367005F851F4261E14842643D714266999A4236
:1013770068F5C3426B47AE426DA3D7427000004287
:10138700725C294274B85242770A3D4279666642D6
:101397007BC28F427E1EB842803D7142816B85427F
:1013A70082947B4283C28F4284F0A442861EB84255
:1013B700874CCD42887AE14289A3D7428AD1EC4251
:1013C7008C0000428D2E14428E5C29428F851F426D
:1013D70090B3334291E14842930F5C42943D71428E
:1013E700956B854296947B4297C28F4298F0A442B0
:1013F7009A1EB8429B4CCD429C7AE1429DA3D742AC
:101407009ED1EC42A0000042A12E1442A25C2942C8
:10141700A3851F42A4B33342A5E14842A70F5C420C
:10142700A83D7142A96B8542AA947B42ABC28F4209
:10143700ACF0A442AE1EB842AF4CCD42B07AE14206
:10144700B1A3D742B2D1EC42B4000042B52E144248
:10145700B65C2942B7851F42B8B33342B9E1484267
:10146700BB0F5C42BC3D7142BD6B8542BE947B4263
:10147700BFC28F42C0F0A442C21EB842C34CCD4285
:10148700C47AE142C5A3D742C6D1EC42C8000042A4
:10149700C92E1442CA5C2942CB851F42CCB33342C2
:1014A700CDE14842CF0F5C42D03D7142D16B8542BE
:1014B700D2947B42D3C28F42D4F0A442D61EB84204
:1014C700D74CCD42D87AE142D9A3D742DAD1EC4200
:1014D700DC000042DD2E1442DE5C2942DF851F421C
:1014E700E0B33342E1E14842E30F5C42E43D71423D
:1014F700E56B8542E6947B42E7C28F42E8F0A4425F
:10150700EA1EB842EB4CCD42EC7AE142EDA3D7425A
:10151700EED1EC42F0000042F12E1442F25C294277
:10152700F3851F42F4B33342F5E14842F70F5C42BB
:10153700F83D7142F96B8542FA947B42FBC28F42B8
:10154700FCF0A442FE1EB842FF4CCD43003D714360
:1015570000D1EC430168F6430200004302970A43B7
:10156700032E144303C28F4304599A4304F0A44340
:101577000587AE43061EB84306B5C343074A3D4336
:1015870007E1484308785243090F5C4309A66643BD
:101597000A3D71430AD1EC430B68F6430C00004344
:1015A7000C970A430D2E14430DC28F430E599A43CD
:1015B7000EF0A4430F87AE43101EB84310B5C343C4
:1015C700114A3D4311E1484312785243130F5C43DC
:1015D70013A66643143D714314D1EC431568F643D3
:0315E700160000EB
:0D18F1000B4A6465736174697661646F0071
:03000B00021907D0
:05190700B2A7C28D3201
:0717F7001218DF7F0A7E00DB
:1017FE00E4FDFCC3ED9FEE6480F8EC648098501518
:10180E00E4FBFA0BBB00010ABA04F8BBFBF50DBDF5
:05181E0000010C80DE5A
:0118230022A2
:1018CD008F80D2A0C2A1D2A27F017E001217FEC2CC
:0218DD00A22245
:1018DF008F80C2A0C2A1D2A27F057E001217FEC2C6
:0218EF00A22233
:1017C9008B228A238924AB22AA23A924120C8AFFFB
:1017D900601B3395E0FE1218CD7F047E001217FEC0
:0E17E90074012524F524E43523F52380D9224C
:101758008B228A2389247F011218DFAB22AA23A9AE
:1017680024120C8A60287F061218DF7F071218DF00
:10177800AB22AA23A924120C8AFF3395E0FE121883
:0F178800CD74012524F524E43523F52380CD22EB
:061797007BFF7A1179D0FE
:10179D00121758E4F555F5567F1C1218DF7F057E9C
:1017AD00001217FE0556E55670020555D39420E537
:0C17BD00556480948040E17F010218DF39
:101898007F147E001217FE7F381217F77F0C12177D
:1018A800F77F011217F77F801218DF7F0A7E000288
:0218B80017FE19
:101700007525FF752611752797AE3EE53F7802C314
:1017100033CE33CED8F924EAF58274113EF5831224
:101720000CE28F2B8E2A8D298C287B007A00794041
:10173000120D847B007A0079401217C97BFF7A1161
:10174000799D1217C97BFF30B2067A11799F800408
:081750007A1179AD1217C922CC
:10182400D2A4D2A57F057E001217FEC2A4C2A520B1
:10183400A6FD30A6FDD2A3AF90753E008F3F7F0575
:081844007E001217FEC2A32270
:0818FF008F993099FDC2992276
:1018BA00120C8AFF600C1218FF740129F9E43AFA33
:0318CA0080EE228B
:101873007F0D1218FF7B007A0079401218BA7BFFA4
:1018830030B2067A1179BB80047A1179C71218BA7B
:051893007F0D0218FFAB
:10167600D2A6C2A4C2A3C2A575A8827598507589C0
:1016860022758C9B758DFD758A9BD28ED28C121815
:10169600987BFF7A1179D01217C97FC87E0012177E
:1016A600FE7F011218DF1217971217971217977FEE
:1016B600011218DF7F061218DF7BFF7A1179DA1222
:1016C60017C97FC01218DF121824C3E53F9427E517
:1016D6003E648094805002C2B2D3E53F942EE53E2C
:1016E600648094804002D2B21217003098D4C29817
:0A16F600E599B46DCD12187380C899
:100D2800E5392425F8E605392278223007027825A6
:100D3800E475F001120CF2020C8A2000EB7F2ED22F
:100D4800008018EF540F2490D43440D4FF30040BA3
:100D5800EF24BFB41A0050032461FFE53A6002157E
:100D68003A053DE53D7002053C30070D7822E475F3
:100D7800F001120CF2EF020CD002184C7403D207E7
:100D88008003E4C207F5398B228A238924E4F53AE3
:100D9800F53CF53DE53A60077F20120D6380F57557
:100DA8003BFFC201C200C202C203C205C206C2089A
:100DB800120D31FF700D3007057F00120D74AF3D25
:100DC800AE3C22B4255FC2D5C204120D31FF24D037
:100DD800B40A00501A75F00A783A30D50508B6FFFB
:100DE8000106C6A426F620D5047002D20380D924B1
:100DF800CFB41A00EF5004C2E5D204021061D20148
:100E080080C6D20080C0D20280BCD2D580BAD205BA
:100E180080B47F20120D632002077401B53A0040A8
:100E2800F1120D28FF120D63020D9CD208D2068024
:100E380095120D28FB120D28FA120D28F94A4B704D
:100E48000679587A117BFF20022EE53A602A7E0047
:100E58008E82758300120CA360060EEE653B70F05F
:100E6800C2D5EBC0E0EAC0E0E9C0E0EE1210C1D0A4
:100E7800E0F9D0E0FAD0E0FB120C8AFF60AAEBC0E0
:100E8800E0EAC0E0E9C0E0120D63D0E02401F9D047
:100E9800E03400FAD0E0FBE53B0460DCD53BD980C8
:100EA80087D20280A21210A460F7E53B70010412F9
:100EB8000800A93B600DE53B600914F53B12114B96
:100EC800EF60F3EA30E702F404C3995077EAF425B7
:100ED8003B0430E701E404F53B800D1210A460C127
:100EE800EA053B253B120800EA7838F630E701E4CA
:100EF800253B04D53B04200501141210C1E4C0E0D1
:100F080012114B7838E6601320E70714F6120D4BE0
:100F1800802204F6D0E014C0E07F00120D4BE53BC0
:100F28006007120D42153B800B300503120D42D0AD
:100F3800E0020D9CD0E00480C51210A460A0E53B3F
:100F4800041208007838EAF6E53B2005026001043F
:050F580024041210C189
:100F5D0074FF04C0E012114B120D4BE53B2005024E
:100F6D006003120D42D0E0B53BE87F45120D557878
:100F7D0038E67F2B30E7047F2DF404C0E0120D63BB
:100F8D00D0E075F00A84C0F0120D4CD0E0120D4C7B
:100F9D00020D9C791080027908C206C2088008D221
:100FAD00D5790A8004790AC2D5E53B047002F53B78
:100FBD00E4FAFDFEFF120D28FC7B08200113120D33
:100FCD0028FD7B1030000A120D28FE120D28FF7B24
:100FDD0020EC3382D592D55013C3E43000069FFF29
:100FED00E49EFEE42001039DFDE49CFCE4CBF8C2ED
:100FFD0001EC700CCFCECDCCE824F8F870F380174F
:10100D00C3EF33FFEE33FEED33FDEC33FCEB33FB7F
:10101D00994002FB0FD8E9EB300105F8D0E0C44848
:10102D00B201C0E00AEC4D4E4F78207B0070C2EA51
:10103D00B53B0040BCC0E01210C3D0F0D0E02001A1
:10104D0004C4C0E0C4B201C0F0120D4CD0F0D5F014
:10105D00EB020D9C120D020E39530FA0580E0A4CC7
:10106D000E06420FA44F0FAC440FAC490E1F430F99
:10107D00B2550EE3460F41450EAD471178500E0E99
:10108D002D0E122E0E352B0E16230E332011612A26
:10109D000DCE4800000E2DE53BB4FF03753B061247
:1010AD000D28FC120D28FD120D28FE120D28FF78BB
:1010BD003102082F790AA2D5200314300509B91081
:1010CD00020404B9080104A2D5200602500104202F
:1010DD0002689202B53A005034C0E07F2030031907
:1010ED007F30A20272067205500F12111AC202C28F
:1010FD0006C205C2087F30800F300503E9C0E0123B
:10110D000D63300503D0E0F9D0E0B53ACC300517CA
:10111D007F30B9100C120D637F583004077F788033
:10112D0003B90803120D633002057F2D020D637F95
:10113D00202008F87F2B2006F322920280CF7F001B
:10114D00B4070050052431F8E6FF22286E756C6C4B
:10115D002900D201120D283001F8C201783A30D59C
:10116D000108F6020DCE2D50434958120D282403C7
:10117D00B405004001E490117393120D54743A12AA
:0A118D000D54D203753A04020FA0BE
:10080000F920E72824F950037907E4F42402FB18BF
:10081000DBFDE624FB5014E9600DE4F618E604F66F
:0F082000B40A08E4F6D9F57401F60A22C2D5220B
:10082F00ED33EC3392D5FA602AB4FF33EDC2E77B98
:10083F00FF60067A087954E4227A08795D20D5049E
:10084F007A087958224E614E002B494E46002D49A9
:10085F004E4600E47A08F608DAFC7B00740722E8BB
:10086F00C0E0ECC0E0EDC0E0EEC0E0EFC0E0EA7544
:10087F00F010A4CAABF075F04DA42BFBE435F0FCDF
:10088F00EA2410FAEB34C5FBEC34D9FCEDC2E7FFD8
:10089F0075F056A4F42411C5F0F434C58FF0A42AD2
:1008AF00E5F03BE43CF620E714120C00D0E0FFD05B
:1008BF00E0FED0E0FDD0E0FC120B338014F4041204
:1008CF000C00D0E0FFD0E0FED0E0FDD0E0FC120A3B
:1008DF002AD0E0F8E6FAEDD2E7CD33EC332482FBF1
:1008EF00E4C3CF33CFCE33CECD33CD33DBF37B0762
:1008FF0075F00A846004F6081B0AE5F0F6088FF01D
:10090F00740AA4FFACF08EF0740AA42CFEACF05065
:10091F00010C8DF0740AA42CFDE435F0F608DBDE33
:03092F0074072228
:10093200020C75E86480F8E933E83360110460F072
:10094200ED33EC337009E8FCE9FDEAFEEBFF22042B
:1009520060DED3EB9FEA9EE99DE8C2E78CF0C2F726
:1009620095F0400CE8CCF8E9CDF9EACEFAEBCFFBF2
:10097200120C4085D0F05804700320D5B3E80470FF
:10098200075002B2D5020C7F92D5EC0460F7E4CC9A
:10099200C0E0C398F8603B94186008400DD0E0FBBB
:1009A200020C57E4FBFAC9FC8028E830E406E4C9EB
:1009B200FBE4CAFCE830E305E4C9CACBFCE854070F
:1009C2006010F8C3E913F9EA13FAEB13FBEC13FC1A
:1009D200D8F130F52FC3E49CFCEF9BFFEE9AFEEDBD
:1009E20099FDD0E0FBEF4E4D4C701222DB03020C5E
:1009F2007CEC2CFCEF33FFEE33FEED33FDED30E704
:100A0200EB020C57EF2BFFEE3AFEED39FDD0E0FB87
:100A120050130BBB0003020C7FED13FDEE13FEEF30
:080A220013FFEC13FC020C575A
:100A2A00EC4D6011E8497017ED33EC3304600DE4C6
:100A3A00FCFFFEFD22E933E8330470F8020C75125C
:100A4A000C4058046009E4CC24815006285009025D
:100A5A000C7F284003020C7CC0E0EB4A7044B9804A
:100A6A0006D0E0FB020C6BEF4E701CBD8008EBFF5A
:100A7A00EAFEE9FD80EBE98DF0A4FEE5F0020B1336
:100A8A00E9CDF9EAFEEBFFEF89F0A4FCE5F0CE89A7
:100A9A00F0A42EFFE435F0CD89F0A42DFEE435F064
:100AAA008067EF4E7005BD80D780C3EF8BF0A4AC92
:100ABA00F0EE8BF0A42CFCE435F0F8EF8AF0A42CCD
:100ACA00E5F038FCE433CB8DF0A42CFCE5F03BF8E0
:100ADA00EE8AF0A42CFCE5F038F8E433CF89F0A4D0
:100AEA002CFCE5F038CF3400CE89F0A42FFFE5F0D6
:100AFA003EFEE433C98DF0A42EFEE5F039CD8AF02E
:100B0A00A42FFFE5F03EFEE43DFD33D0E0FB5007A5
:100B1A000BBB000F020C7FEC2CFCEF33FFEE33FE15
:060B2A00ED33FD020C5743
:100B3000020C7FEC5D046005E859047003020C753B
:100B4000120C40580460F6EC4860F2EC7004FDFEB4
:100B5000FF22C860DB2481C85009C3986002500698
:100B6000020C7C9850CAF582E9294B4A7005AB8289
:100B7000020C6B75F0007C1A7880C3EF9BEE9AED47
:100B800099400DC3EF9BFFEE9AFEED99FDE842F010
:100B9000DC23ACF0D0E0FFD0E0FED0E0FDAB822063
:100BA000E7101BEB60BAEC2CFCEF33FFEE33FEEDED
:100BB00033FD020C57E803F830E705C0F075F0008C
:100BC000EF2FFFEE33FEED33FD40B830E7C280AAD1
:100BD0003F8000004120000042C80000447A00002D
:100BE000461C400047C35000497424004B189680AF
:100BF0004CBEBC205A0E1BCA6753C21C749DC5AEA6
:100C0000FB60065407601C2323120C2EEB54386043
:100C100009120C1A120C29120A2AECF8EDF9EEFA54
:100C2000EFCB22EB120C2980F1543803241C900BDB
:100C3000D0FE93FC0EEE93FD0EEE930ECE93FF22AC
:100C4000E9D2E7C933E833F892D5EDD2E7CD33ECFA
:070C500033FC5002B2D52273
:100C5700EC30E7100FBF000C0EBE00080DBD0004FE
:100C67000BEB6014A2D5EB13FCED92E7FD2274FFAA
:100C7700FCFDFEFF22E480F8A2D574FF13FC7D8003
:030C8700E480EF17
:1015F600021676E493A3F8E493A34003F68001F27F
:1016060008DFF48029E493A3F85407240CC8C333F5
:10161600C4540F4420C8834004F456800146F6DFC4
:10162600E4800B01020408102040809018F1E47E4B
:10163600019360BCA3FF543F30E509541FFEE493B9
:10164600A360010ECF54C025E060A840B8E493A380
:10165600FAE493A3F8E493A3C8C582C8CAC583CAAB
:10166600F0A3C8C582C8CAC583CADFE9DEE780BE63
:0118FE0000E9
:100C8A00BB010689828A83E0225002E722BBFE0268
:090C9A00E32289828A83E493229B
:100CA300BB010CE58229F582E5833AF583E0225006
:100CB30006E92582F8E622BBFE06E92582F8E22250
:0D0CC300E58229F582E5833AF583E493226A
:100CD000BB010689828A83F0225002F722BBFE0103
:020CE000F322FD
:100CE200E493FC740193FD740293FE740393FF2258
:100CF200FAE6FB0808E6F925F0F618E6CA3AF62203
:100D0200D083D082F8E4937012740193700DA3A380
:100D120093F8740193F5828883E473740293686094
:060D2200EFA3A3A380DF94
:10184C00EFB40A07740D121857740A309811A8993E
:10185C00B8130CC2983098FDA899C298B811F630FC
:07186C0099FDC299F59922D4
:00000001FF
